:100000000C9452000C946F000C946F000C946F00D1
:100010000C946F000C946F000C946F000C946F00A4
:100020000C946F000C946F000C946F000C946F0094
:100030000C946F000C946F000C946F000C946F0084
:100040000C94B5000C946F000C946F000C946F002E
:100050000C946F000C946F000C946F000C946F0064
:100060000C946F000C946F00000000002500280025
:100070002B0000000000240027002A0004040404D0
:100080000404040402020202020203030303030342
:10009000010204081020408001020408102001021F
:1000A0000408102011241FBECFEFD8E0DEBFCDBF63
:1000B00011E0A0E0B1E0ECECF4E002C005900D929C
:1000C000A432B107D9F721E0A4E2B1E001C01D924A
:1000D000AD32B207E1F70E94FF000C94FE010C94D0
:1000E000000090E0FC01E057FF4F2491FC01E45830
:1000F000FF4F8491882399F090E0880F991FFC01AD
:10010000EE58FF4FA591B491FC01E859FF4F85913E
:1001100094918FB7F894EC91E22BEC938FBF0895F4
:100120003FB7F8948091290190912A01A0912B0169
:10013000B0912C0126B5A89B05C02F3F19F0019660
:10014000A11DB11D3FBFBA2FA92F982F8827820F5D
:10015000911DA11DB11DBC01CD0142E0660F771FAD
:10016000881F991F4A95D1F708951F920F920FB6D5
:100170000F9211242F933F938F939F93AF93BF932D
:100180008091250190912601A0912701B09128012D
:100190003091240123E0230F2D3720F40196A11D77
:1001A000B11D05C026E8230F0296A11DB11D2093A5
:1001B00024018093250190932601A0932701B093F9
:1001C00028018091290190912A01A0912B01B091E1
:1001D0002C010196A11DB11D8093290190932A0144
:1001E000A0932B01B0932C01BF91AF919F918F9160
:1001F0003F912F910F900FBE0F901F9018957894FC
:1002000084B5826084BD84B5816084BD85B582601B
:1002100085BD85B5816085BD80916E0081608093CC
:100220006E00109281008091810082608093810035
:100230008091810081608093810080918000816045
:10024000809380008091B10084608093B1008091A0
:10025000B00081608093B00080917A0084608093C8
:100260007A0080917A00826080937A0080917A008F
:10027000816080937A0080917A00806880937A0010
:100280001092C100C4E0D1E0888122960E947100E2
:1002900021E0C432D207C1F781E10E94710080E100
:1002A0000E9471008FE00E9471008EE00E94710038
:1002B00082E480937C0080917A00806480937A004D
:1002C00080917A0086FDFCCF609178008091790062
:1002D00070E0782B072E000C880B990B61157105C7
:1002E0008105910511F00E94F501C0E0D0E00E9467
:1002F00090004B015C0184E6C82ED12CE12CF12C3E
:100300000E949000DC01CB0188199909AA09BB0958
:10031000883E9340A105B10558F081E0C81AD10884
:10032000E108F10828EE820E23E0921EA11CB11C08
:10033000C114D104E104F10419F72097C1F20E941D
:100340000000D5CF8F929F92AF92BF92CF92DF9253
:10035000EF92FF92CF93DF93EC01688179818A81DC
:100360009B81611571058105910521F464E279EDA8
:100370008BE597E02DE133EF41E050E00E94010270
:1003800049015A019B01AC01A7EAB1E40E94200295
:100390006B017C01ACEEB4EFA50194010E942E022A
:1003A000DC01CB018C0D9D1DAE1DBF1DB7FF03C031
:1003B0000197A109B04888839983AA83BB83BC01B4
:1003C000CD019F77DF91CF91FF90EF90DF90CF909D
:1003D000BF90AF909F908F9008950E94A2010895C2
:1003E00080E091E00E94A201089560930001709363
:1003F000010180930201909303010895F8940C94F5
:100400006402052E97FB1EF400940E94180257FD0B
:1004100007D00E94330207FC03D04EF40C9418025C
:1004200050954095309521953F4F4F4F5F4F089520
:1004300090958095709561957F4F8F4F9F4F089550
:100440000E945502A59F900DB49F900DA49F800D12
:10045000911D11240895B7FF0C9420020E942002E0
:10046000821B930B0895A1E21A2EAA1BBB1BFD0150
:100470000DC0AA1FBB1FEE1FFF1FA217B307E40783
:10048000F50720F0A21BB30BE40BF50B661F771FDB
:10049000881F991F1A9469F76095709580959095BB
:1004A0009B01AC01BD01CF010895A29FB001B39F94
:1004B000C001A39F700D811D1124911DB29F700D6D
:0C04C000811D1124911D0895F894FFCFB8
:1004CC00010000000D000C000B000A0009000800E0
:1004DC0007000600050004000300020001000000F4
:0404EC0013001200E7
:00000001FF
