:100000000C9462000C948A000C948A000C948A0070
:100010000C948A000C948A000C948A000C948A0038
:100020000C948A000C948A000C948A000C948A0028
:100030000C948A000C948A000C948A000C948A0018
:100040000C940D030C948A000C948A000C948A0082
:100050000C948A000C948A000C948A000C948A00F8
:100060000C948A000C948A000000000024002700F1
:100070002A0000000000250028002B0000000008D6
:10008000000201000003040700000000000000005F
:1000900000000000230026002900040404040404D6
:1000A0000404020202020202030303030303010227
:1000B00004081020408001020408102001020408F6
:1000C0001020920511241FBECFEFD8E0DEBFCDBFB8
:1000D00011E0A0E0B1E0E2E3FEE002C005900D9285
:1000E000A238B107D9F721E0A2E8B1E001C01D9222
:1000F000AB3AB207E1F710E0C2E6D0E004C02197C6
:10010000FE010E941107C136D107C9F70E949C0366
:100110000C94B1050C940000CF92DF92EF92FF9205
:100120000F931F93CF93DF936C017A018B01C0E093
:10013000D0E0CE15DF0589F0D8016D918D01D60193
:10014000ED91FC910190F081E02DC6010995892B7C
:1001500011F47E0102C02196ECCFC701DF91CF914F
:100160001F910F91FF90EF90DF90CF900895089529
:1001700080E090E0089590E0FC01E458FF4F349156
:10018000FC01E255FF4F2491FC01E656FF4FE4913C
:10019000EE2309F43BC0332339F1333091F038F4C6
:1001A0003130A9F0323001F584B58F7D12C037307F
:1001B00091F03830A1F03430B9F4809180008F7D17
:1001C00003C0809180008F77809380000DC084B53C
:1001D0008F7784BD09C08091B0008F7703C0809174
:1001E000B0008F7D8093B000F0E0EE0FFF1FEE585F
:1001F000FF4FA591B4918FB7F894EC91611103C0B2
:1002000020952E2301C02E2B2C938FBF0895CF93C2
:10021000DF93EC0160E08E810E94BB0061E08E8183
:100220000E94BB0060E08E810E94BB008BE891E0E1
:100230000197F1F7DF91CF910895CF92DF92EF927E
:10024000FF920F931F93CF93DF937C016C0187E0A4
:10025000C80ED11CC0E0D0E0062F10E0B8010C2E73
:1002600002C0759567950A94E2F76170F601819175
:100270006F010E94BB002196C430D10579F7C701F8
:10028000DF91CF911F910F91FF90EF90DF90CF9072
:100290000C940701CF92DF92EF92FF920F931F937E
:1002A000CF93DF93EC01F62E642F8C810E94BB006C
:1002B0008D818F3F19F060E00E94BB008F850F2D6C
:1002C00010E084FF25C06E0187E0C80ED11CE12C30
:1002D000F12CB8010E2C02C0759567950A94E2F7CF
:1002E0006170F60181916F010E94BB00FFEFEF1A70
:1002F000FF0A88E0E816F10461F7CE01DF91CF91A3
:100300001F910F91FF90EF90DF90CF900C94070119
:10031000B80184E0759567958A95E1F7CE010E9452
:100320001D016F2DCE01DF91CF911F910F91FF9095
:10033000EF90DF90CF900C941D0141E00E944A01A4
:1003400081E090E0089540E00C944A01843008F088
:1003500083E09091A601891710F08FEF890FE82FA5
:10036000F0E0ED56FE4F6489606883E991E00C94FB
:10037000A301CF93DF9390E0FC01E255FF4F24915E
:10038000FC01E656FF4F8491882361F190E0880FCD
:10039000991FFC01E859FF4FC591D491FC01EE581B
:1003A000FF4FA591B491611109C09FB7F89488815E
:1003B000209582238883EC912E230BC0623061F458
:1003C0009FB7F8943881822F809583238883EC919E
:1003D0002E2B2C939FBF06C08FB7F894E8812E2B4D
:1003E00028838FBFDF91CF910895EF92FF920F93F3
:1003F0001F93CF93DF93EC01623018F08F858860F4
:100400008F876B8B1C8A80E48D8B80E18E8B80E5DF
:100410008F8B61E08C810E94B9018D818F3F19F033
:1004200061E00E94B90161E08E810E94B9017E0104
:1004300087E0E80EF11C00E010E08F8584FD03C02A
:1004400084E090E002C088E090E0081719074CF4BF
:1004500061E0F70181917F010E94B9010F5F1F4F99
:10046000ECCF8BE39DE00197F1F760E08C810E9477
:10047000BB0060E08E810E94BB008D818F3F19F030
:1004800060E00E94BB006F8564FD1DC063E0CE018B
:100490000E941D010BE416E4C8010197F1F763E027
:1004A000CE010E941D01C8010197F1F763E0CE0162
:1004B0000E941D0183E592E00197F1F762E0CE0111
:1004C0000E941D0116C06062CE010E94A3018BE450
:1004D00096E40197F1F76F856062CE010E94A30157
:1004E00083E592E00197F1F76F856062CE010E948B
:1004F000A3016F856062CE010E94A30184E0888B16
:100500006CE0CE010E94A30161E0CE010E94A30134
:100510008BE39FE10197F1F782E0898B66E0CE01E2
:10052000DF91CF911F910F91FF90EF900C94A30159
:100530003FB7F8948091870190918801A09189013B
:10054000B0918A0126B5A89B05C02F3F19F00196EE
:10055000A11DB11D3FBFBA2FA92F982F8827820F49
:10056000911DA11DB11DBC01CD0142E0660F771F99
:10057000881F991F4A95D1F708958F929F92AF9245
:10058000BF92CF92DF92EF92FF926B017C010E94AB
:1005900098024B015C01C114D104E104F104F1F0B3
:1005A0000E949802DC01CB0188199909AA09BB09AC
:1005B000883E9340A105B10570F321E0C21AD1082D
:1005C000E108F10888EE880E83E0981EA11CB11C9A
:1005D000C114D104E104F10419F7DDCFFF90EF90CD
:1005E000DF90CF90BF90AF909F908F90089500972D
:1005F00069F0FC0101900020E9F73197AF01481B39
:10060000590BBC0183E991E00C948C0080E090E0F0
:1006100008950C94F7020E94B4051F920F920FB632
:100620000F9211242F933F938F939F93AF93BF9378
:100630008091830190918401A0918501B091860100
:100640003091820123E0230F2D3720F40196A11D64
:10065000B11D05C026E8230F0296A11DB11D2093F0
:1006600082018093830190938401A0938501B093CC
:1006700086018091870190918801A0918901B091B4
:100680008A010196A11DB11D809387019093880175
:10069000A0938901B0938A01BF91AF919F918F91EF
:1006A0003F912F910F900FBE0F901F901895CF92F2
:1006B000DF92EF92FF920F931F93E82FF92F05C05F
:1006C000015011092109310961F190819623941794
:1006D000B9F305C0015011092109310911F19081C7
:1006E00096239413F7CFC12CD12CE12CF12C0AC006
:1006F0008FEFC81AD80AE80AF80A0C151D052E054E
:100700003F0579F080818623841791F36C2D7D2D30
:100710008E2D9F2D1F910F91FF90EF90DF90CF9026
:10072000089560E070E080E090E01F910F91FF90ED
:10073000EF90DF90CF900895CF93DF93CDB7DEB7E2
:10074000A1970FB6F894DEBF0FBECDBF789484B5E5
:10075000826084BD84B5816084BD85B5826085BDBD
:1007600085B5816085BD80916E00816080936E004B
:10077000109281008091810082608093810080913D
:1007800081008160809381008091800081608093EE
:1007900080008091B10084608093B1008091B000AE
:1007A00081608093B00080917A00846080937A00A9
:1007B00080917A00826080937A0080917A008160D3
:1007C00080937A0080917A00806880937A001092FA
:1007D000C10061E087E00E94B90160E08AE00E9408
:1007E000B90161E08BE00E94B90162E083E991E028
:1007F0000E94F50180E00E94A6018CE491E00E9435
:1008000009038CE091E00E9409038CE491E00E94CE
:10081000090381E00E94A6018CE491E00E94090393
:100820008BE191E00E9409038CE491E00E940903AE
:1008300060ED77E080E090E00E94BD0261E083E936
:1008400091E00E94A3018BE39FE10197F1F753E050
:10085000E52EF12C63E2C62ED12C7AE0272E312C26
:10086000412C512C44EA642E40E0742E60E08BE071
:100870000E94BB00C7010197F1F761E08BE00E9485
:10088000BB00C6010197F1F760E08BE00E94BB005E
:10089000E8EBF0E06491F3018491E82FF0E0EE0FD3
:1008A000FF1FE057FF4F8591949100E412E42FE081
:1008B00030E0462F0E9457036115710581059105AF
:1008C00039F0DC01CB010196A11DB11DBF7003C041
:1008D00080E090E0DC0180938F0190939001A093E1
:1008E0009101B0939201BC01CD01959587957795C3
:1008F00067950E94630623E333E349EE51E40E94C7
:10090000B9050E942B0660938B0170938C01809334
:100910008D0190938E01DC01CB010197A109B109F2
:10092000873C9105A105B10540F180E00E94A60138
:100930008CE491E00E94090387E291E00E940903A0
:100940008CE491E00E94090381E00E94A6018CE4FE
:1009500091E00E94090386E391E00E9409038CE480
:1009600091E00E94090360ED77E080E090E00E9452
:10097000BD0280E00E94A60164C080E00E94A60142
:100980008FE391E00E94090380908B0190908C018D
:10099000A0908D01B0908E01B7FE26C0E09193012A
:1009A000F09194010190F081E02D6DE283E991E0F6
:1009B000099522273327A901281939094A095B0912
:1009C00019A28E010F5D1F4FCA01B901A201910149
:1009D0000E94EF06605DF80162938F0121153105D9
:1009E0004105510589F715C0A501940119A28E0191
:1009F0000F5D1F4FCA01B901A20191010E94EF06CC
:100A0000605DF80162938F012115310541055105A3
:100A100089F7C8010E94F70286E491E00E94090369
:100A20008DE391E00E94090381E00E94A60189E420
:100A300091E00E94090364EF71E080E090E00E9481
:100A4000BD0281E00E94A60161E087E00E94B90139
:100A500088E591E00E94090364EF71E080E090E096
:100A60000E94BD0280918B0190918C01A0918D011B
:100A7000B0918E010A97A109B1090597A105B105A9
:100A800088F481E00E94A6018EE491E00E940903AF
:100A900060E087E00E94B90164EF71E080E090E0DF
:100AA0000E94BD0280918B0190918C01A0918D01DB
:100AB000B0918E010597A109B1090597A105B1056E
:100AC00068F481E00E94A6018EE591E00E9409038E
:100AD00064EF71E080E090E00E94BD0280918B01A4
:100AE00090918C01A0918D01B0918E010197A10987
:100AF000B1090497A105B10568F481E00E94A6013F
:100B00008EE691E00E94090364EF71E080E090E0DE
:100B10000E94BD0280E090E0892B09F4A7CE0E94DC
:100B20000000A0CEE3E9F1E01382128284E091E0BC
:100B3000918380838DE084838FEF85838CE086832F
:100B400085E0878384E0808783E0818782E08287F5
:100B50001386148615861686178661E0CF010C94DD
:100B6000F501F8940C94170781E090E0F8940C9448
:100B700017070E94CD050C94B5060E94AE0658F0EA
:100B80000E94A70640F029F45F3F29F00C949E06CE
:100B900051110C94E9060C94A4060E94C60668F351
:100BA0009923B1F3552391F3951B550BBB27AA2726
:100BB00062177307840738F09F5F5F4F220F331F60
:100BC000441FAA1FA9F335D00E2E3AF0E0E832D028
:100BD00091505040E695001CCAF72BD0FE2F29D02B
:100BE000660F771F881FBB1F261737074807AB07FD
:100BF000B0E809F0BB0B802DBF01FF2793585F4F72
:100C00003AF09E3F510578F00C949E060C94E9064C
:100C10005F3FE4F3983ED4F3869577956795B79553
:100C2000F7959F5FC9F7880F911D9695879597F95E
:100C30000895E1E0660F771F881FBB1F62177307D7
:100C40008407BA0720F0621B730B840BBA0BEE1FEC
:100C500088F7E09508950E9432066894B1110C94CB
:100C6000E90608950E94CE0688F09F5798F0B92FA4
:100C70009927B751B0F0E1F0660F771F881F991FD1
:100C80001AF0BA95C9F714C0B13091F00E94E80685
:100C9000B1E008950C94E806672F782F8827B85F95
:100CA00039F0B93FCCF3869577956795B395D9F729
:100CB0003EF490958095709561957F4F8F4F9F4F33
:100CC0000895E89409C097FB3EF49095809570953F
:100CD00061957F4F8F4F9F4F9923A9F0F92F96E988
:100CE000BB279395F695879577956795B795F111FD
:100CF000F8CFFAF4BB0F11F460FF1BC06F5F7F4F9A
:100D00008F4F9F4F16C0882311F096E911C07723AB
:100D100021F09EE8872F762F05C0662371F096E8B4
:100D2000862F70E060E02AF09A95660F771F881F83
:100D3000DAF7880F9695879597F9089597F99F6741
:100D400080E870E060E008959FEF80EC0895002453
:100D50000A941616170618060906089500240A9420
:100D600012161306140605060895092E0394000CA6
:100D700011F4882352F0BB0F40F4BF2B11F460FF35
:100D800004C06F5F7F4F8F4F9F4F089557FD90585E
:100D9000440F551F59F05F3F71F04795880F97FB3F
:100DA000991F61F09F3F79F08795089512161306F9
:100DB0001406551FF2CF4695F1DF08C01616170628
:100DC0001806991FF1CF869571056105089408955D
:100DD000E894BB2766277727CB0197F90895A1E20E
:100DE0001A2EAA1BBB1BFD010DC0AA1FBB1FEE1FA5
:100DF000FF1FA217B307E407F50720F0A21BB30BF0
:100E0000E40BF50B661F771F881F991F1A9469F76B
:100E100060957095809590959B01AC01BD01CF01C7
:100E20000895EE0FFF1F0590F491E02D0994F894BA
:020E3000FFCFF2
:100E3200000000009D018C00B800B70053454E53DE
:100E42004F522048432D5352303400554C54524196
:100E5200534F4E49434F0046554552412044452089
:100E620052414E474F002D2D2D2D2D2D2D2D2D2D47
:100E72002D2D2D2D2D00636D0020202020004553A7
:100E8200544153204D415320434552434100455361
:100E9200544153204D555920434552434100444546
:100EA2004C414E54452044454C2053454E534F52DD
:020EB20000003E
:00000001FF
